{
  "address": "0x3915b4DA28Ddd51bD7E684DeEc3361f71524b38E",
  "abi": [
    {
      "inputs": [],
      "stateMutability": "nonpayable",
      "type": "constructor"
    },
    {
      "inputs": [
        {
          "internalType": "uint256",
          "name": "_amount",
          "type": "uint256"
        }
      ],
      "name": "deposit",
      "outputs": [],
      "stateMutability": "nonpayable",
      "type": "function"
    },
    {
      "inputs": [
        {
          "internalType": "address",
          "name": "_user",
          "type": "address"
        }
      ],
      "name": "deposited",
      "outputs": [
        {
          "internalType": "uint256",
          "name": "",
          "type": "uint256"
        }
      ],
      "stateMutability": "view",
      "type": "function"
    },
    {
      "inputs": [
        {
          "internalType": "uint256",
          "name": "_amount",
          "type": "uint256"
        }
      ],
      "name": "fund",
      "outputs": [],
      "stateMutability": "nonpayable",
      "type": "function"
    },
    {
      "inputs": [
        {
          "internalType": "uint256",
          "name": "amount",
          "type": "uint256"
        },
        {
          "internalType": "uint256",
          "name": "stakingStart",
          "type": "uint256"
        }
      ],
      "name": "getFeeInternal",
      "outputs": [
        {
          "internalType": "uint256",
          "name": "",
          "type": "uint256"
        }
      ],
      "stateMutability": "view",
      "type": "function"
    },
    {
      "inputs": [
        {
          "internalType": "address",
          "name": "userAddress",
          "type": "address"
        },
        {
          "internalType": "uint256",
          "name": "amountToWithdraw",
          "type": "uint256"
        }
      ],
      "name": "getWithdrawFee",
      "outputs": [
        {
          "internalType": "uint256",
          "name": "",
          "type": "uint256"
        }
      ],
      "stateMutability": "view",
      "type": "function"
    },
    {
      "inputs": [],
      "name": "paidOut",
      "outputs": [
        {
          "internalType": "uint256",
          "name": "",
          "type": "uint256"
        }
      ],
      "stateMutability": "view",
      "type": "function"
    },
    {
      "inputs": [],
      "name": "pending",
      "outputs": [
        {
          "internalType": "uint256",
          "name": "",
          "type": "uint256"
        }
      ],
      "stateMutability": "view",
      "type": "function"
    },
    {
      "inputs": [],
      "name": "secondsPreYear",
      "outputs": [
        {
          "internalType": "uint256",
          "name": "",
          "type": "uint256"
        }
      ],
      "stateMutability": "view",
      "type": "function"
    },
    {
      "inputs": [
        {
          "internalType": "contract IERC20",
          "name": "_erc20",
          "type": "address"
        }
      ],
      "name": "setStakingToken",
      "outputs": [],
      "stateMutability": "nonpayable",
      "type": "function"
    },
    {
      "inputs": [],
      "name": "stakingPercent",
      "outputs": [
        {
          "internalType": "uint256",
          "name": "",
          "type": "uint256"
        }
      ],
      "stateMutability": "view",
      "type": "function"
    },
    {
      "inputs": [],
      "name": "totalDeposits",
      "outputs": [
        {
          "internalType": "uint256",
          "name": "",
          "type": "uint256"
        }
      ],
      "stateMutability": "view",
      "type": "function"
    },
    {
      "inputs": [],
      "name": "totalRewards",
      "outputs": [
        {
          "internalType": "uint256",
          "name": "",
          "type": "uint256"
        }
      ],
      "stateMutability": "view",
      "type": "function"
    },
    {
      "inputs": [
        {
          "internalType": "address",
          "name": "",
          "type": "address"
        }
      ],
      "name": "userInfo",
      "outputs": [
        {
          "internalType": "uint256",
          "name": "amount",
          "type": "uint256"
        },
        {
          "internalType": "uint256",
          "name": "stakingStart",
          "type": "uint256"
        }
      ],
      "stateMutability": "view",
      "type": "function"
    },
    {
      "inputs": [
        {
          "internalType": "uint256",
          "name": "_amount",
          "type": "uint256"
        }
      ],
      "name": "withdraw",
      "outputs": [],
      "stateMutability": "nonpayable",
      "type": "function"
    }
  ],
  "transactionHash": "0xd728a10479eacb3e5d679e5af4ec945bc3640bd4dcc38be300bacf8609bc757f",
  "args": [],
  "numDeployments": 1,
  "solcInputHash": "da1861d0de417d91b8ed51ba4861dec9",
  "bytecode": "0x60806040526201518060005560146001556301e1853e60025534801561002457600080fd5b50600480546001600160a01b03191633179055610b77806100466000396000f3fe608060405234801561001057600080fd5b50600436106100ea5760003560e01c8063b6b55f251161008c578063ca1d209d11610066578063ca1d209d146101b9578063cb13cddb146101cc578063e20ccec3146101f5578063fbfe316e146101fd57600080fd5b8063b6b55f251461018a578063be1193ea1461019d578063c9d8ada6146101a657600080fd5b80631e9b12ef116100c85780631e9b12ef146101505780632e1a7d4d146101655780635c76ca2d146101785780637d8820971461018157600080fd5b80630e15561a146100ef5780631959a0021461010b5780631a4e412514610147575b600080fd5b6100f860065481565b6040519081526020015b60405180910390f35b61013261011936600461098a565b6007602052600090815260409020805460019091015482565b60408051928352602083019190915201610102565b6100f860025481565b61016361015e36600461098a565b610210565b005b6101636101733660046109f1565b6102b3565b6100f860055481565b6100f860085481565b6101636101983660046109f1565b61038f565b6100f860015481565b6100f86101b4366004610a09565b6103ef565b6101636101c73660046109f1565b610424565b6100f86101da36600461098a565b6001600160a01b031660009081526007602052604090205490565b6100f86104b4565b6100f861020b3660046109a6565b6104f4565b6004546001600160a01b031633146102795760405162461bcd60e51b815260206004820152602160248201527f53616c65206e6f742063726561746564207468726f75676820666163746f72796044820152601760f91b60648201526084015b60405180910390fd5b600380547fffffffffffffffffffffffff0000000000000000000000000000000000000000166001600160a01b0392909216919091179055565b33600090815260076020526040902080548211156103135760405162461bcd60e51b815260206004820152601260248201527f4e6f7420656e6f7567682062616c616e636500000000000000000000000000006044820152606401610270565b60006103238383600101546103ef565b905060006103318285610ad0565b905061033b61051c565b816006546103499190610a79565b600655426001840155825461035f908590610ad0565b835560085461036f908590610ad0565b600855600354610389906001600160a01b031633836105cb565b50505050565b3360009081526007602052604090208054156103ad576103ad61051c565b6003546103c5906001600160a01b0316333085610679565b816008546103d39190610a79565b60085580546103e3908390610a79565b81554260019091015550565b6000806104046103ff8442610ad0565b6106ca565b905060646104128286610ab1565b61041c9190610a91565b949350505050565b6004546001600160a01b031633146104885760405162461bcd60e51b815260206004820152602160248201527f53616c65206e6f742063726561746564207468726f75676820666163746f72796044820152601760f91b6064820152608401610270565b6003546104a0906001600160a01b0316333084610679565b806006546104ae9190610a79565b60065550565b33600090815260076020908152604080832081518083019092528054808352600190910154928201839052909183916104ed9190610743565b9392505050565b6001600160a01b0382166000908152600760205260408120600181015461041c9084906103ef565b336000908152600760205260408120906105346104b4565b90506006548111156105885760405162461bcd60e51b815260206004820152601060248201527f4e6f7420656e6f75676820746f6b656e000000000000000000000000000000006044820152606401610270565b60035461059f906001600160a01b031633836105cb565b4260018301556006546105b3908290610ad0565b6006556005546105c4908290610a79565b6005555050565b6040516001600160a01b0383166024820152604481018290526106749084907fa9059cbb00000000000000000000000000000000000000000000000000000000906064015b60408051601f198184030181529190526020810180517bffffffffffffffffffffffffffffffffffffffffffffffffffffffff167fffffffff0000000000000000000000000000000000000000000000000000000090931692909217909152610791565b505050565b6040516001600160a01b03808516602483015283166044820152606481018290526103899085907f23b872dd0000000000000000000000000000000000000000000000000000000090608401610610565b6000805481906106db90600e610ab1565b8310156106ea5750601e61073d565b6000546106f890601c610ab1565b8310156107075750601461073d565b60005461071590602a610ab1565b8310156107245750600a61073d565b600054610732906038610ab1565b83101561073d575060055b92915050565b600042816107518583610ad0565b90506000600254606460015484886107699190610ab1565b6107739190610ab1565b61077d9190610a91565b6107879190610a91565b9695505050505050565b60006107e6826040518060400160405280602081526020017f5361666545524332303a206c6f772d6c6576656c2063616c6c206661696c6564815250856001600160a01b03166108769092919063ffffffff16565b805190915015610674578080602001905181019061080491906109d1565b6106745760405162461bcd60e51b815260206004820152602a60248201527f5361666545524332303a204552433230206f7065726174696f6e20646964206e60448201527f6f742073756363656564000000000000000000000000000000000000000000006064820152608401610270565b606061041c8484600085856001600160a01b0385163b6108d85760405162461bcd60e51b815260206004820152601d60248201527f416464726573733a2063616c6c20746f206e6f6e2d636f6e74726163740000006044820152606401610270565b600080866001600160a01b031685876040516108f49190610a2a565b60006040518083038185875af1925050503d8060008114610931576040519150601f19603f3d011682016040523d82523d6000602084013e610936565b606091505b5091509150610946828286610951565b979650505050505050565b606083156109605750816104ed565b8251156109705782518084602001fd5b8160405162461bcd60e51b81526004016102709190610a46565b60006020828403121561099b578081fd5b81356104ed81610b29565b600080604083850312156109b8578081fd5b82356109c381610b29565b946020939093013593505050565b6000602082840312156109e2578081fd5b815180151581146104ed578182fd5b600060208284031215610a02578081fd5b5035919050565b60008060408385031215610a1b578182fd5b50508035926020909101359150565b60008251610a3c818460208701610ae7565b9190910192915050565b6020815260008251806020840152610a65816040850160208701610ae7565b601f01601f19169190910160400192915050565b60008219821115610a8c57610a8c610b13565b500190565b600082610aac57634e487b7160e01b81526012600452602481fd5b500490565b6000816000190483118215151615610acb57610acb610b13565b500290565b600082821015610ae257610ae2610b13565b500390565b60005b83811015610b02578181015183820152602001610aea565b838111156103895750506000910152565b634e487b7160e01b600052601160045260246000fd5b6001600160a01b0381168114610b3e57600080fd5b5056fea2646970667358221220aee9d99d98bdd94dd4577acaaf4f9bf6505b17bfc41f34362fe26e8a8ffa135b64736f6c63430008040033",
  "devdoc": {
    "kind": "dev",
    "methods": {},
    "version": 1
  },
  "userdoc": {
    "kind": "user",
    "methods": {},
    "version": 1
  },
  "storageLayout": {
    "storage": [
      {
        "astId": 2747,
        "contract": "contracts/Staking.sol:AllocationStaking",
        "label": "secondsPerDay",
        "offset": 0,
        "slot": "0",
        "type": "t_uint256"
      },
      {
        "astId": 2750,
        "contract": "contracts/Staking.sol:AllocationStaking",
        "label": "stakingPercent",
        "offset": 0,
        "slot": "1",
        "type": "t_uint256"
      },
      {
        "astId": 2753,
        "contract": "contracts/Staking.sol:AllocationStaking",
        "label": "secondsPreYear",
        "offset": 0,
        "slot": "2",
        "type": "t_uint256"
      },
      {
        "astId": 2756,
        "contract": "contracts/Staking.sol:AllocationStaking",
        "label": "stakingToken",
        "offset": 0,
        "slot": "3",
        "type": "t_contract(IERC20)77"
      },
      {
        "astId": 2758,
        "contract": "contracts/Staking.sol:AllocationStaking",
        "label": "admin",
        "offset": 0,
        "slot": "4",
        "type": "t_address"
      },
      {
        "astId": 2760,
        "contract": "contracts/Staking.sol:AllocationStaking",
        "label": "paidOut",
        "offset": 0,
        "slot": "5",
        "type": "t_uint256"
      },
      {
        "astId": 2762,
        "contract": "contracts/Staking.sol:AllocationStaking",
        "label": "totalRewards",
        "offset": 0,
        "slot": "6",
        "type": "t_uint256"
      },
      {
        "astId": 2767,
        "contract": "contracts/Staking.sol:AllocationStaking",
        "label": "userInfo",
        "offset": 0,
        "slot": "7",
        "type": "t_mapping(t_address,t_struct(UserInfo)2744_storage)"
      },
      {
        "astId": 2769,
        "contract": "contracts/Staking.sol:AllocationStaking",
        "label": "totalDeposits",
        "offset": 0,
        "slot": "8",
        "type": "t_uint256"
      }
    ],
    "types": {
      "t_address": {
        "encoding": "inplace",
        "label": "address",
        "numberOfBytes": "20"
      },
      "t_contract(IERC20)77": {
        "encoding": "inplace",
        "label": "contract IERC20",
        "numberOfBytes": "20"
      },
      "t_mapping(t_address,t_struct(UserInfo)2744_storage)": {
        "encoding": "mapping",
        "key": "t_address",
        "label": "mapping(address => struct AllocationStaking.UserInfo)",
        "numberOfBytes": "32",
        "value": "t_struct(UserInfo)2744_storage"
      },
      "t_struct(UserInfo)2744_storage": {
        "encoding": "inplace",
        "label": "struct AllocationStaking.UserInfo",
        "members": [
          {
            "astId": 2741,
            "contract": "contracts/Staking.sol:AllocationStaking",
            "label": "amount",
            "offset": 0,
            "slot": "0",
            "type": "t_uint256"
          },
          {
            "astId": 2743,
            "contract": "contracts/Staking.sol:AllocationStaking",
            "label": "stakingStart",
            "offset": 0,
            "slot": "1",
            "type": "t_uint256"
          }
        ],
        "numberOfBytes": "64"
      },
      "t_uint256": {
        "encoding": "inplace",
        "label": "uint256",
        "numberOfBytes": "32"
      }
    }
  }
}